{
  "_format": "hh-sol-artifact-1",
  "contractName": "MockTimeSwapRouter02",
  "sourceName": "contracts/test/MockTimeSwapRouter.sol",
  "abi": [
    {
      "inputs": [
        {
          "internalType": "address",
          "name": "_factoryV2",
          "type": "address"
        },
        {
          "internalType": "address",
          "name": "factoryV3",
          "type": "address"
        },
        {
          "internalType": "address",
          "name": "_positionManager",
          "type": "address"
        },
        {
          "internalType": "address",
          "name": "_WETH9",
          "type": "address"
        }
      ],
      "stateMutability": "nonpayable",
      "type": "constructor"
    },
    {
      "inputs": [],
      "name": "WETH9",
      "outputs": [
        {
          "internalType": "address",
          "name": "",
          "type": "address"
        }
      ],
      "stateMutability": "view",
      "type": "function"
    },
    {
      "inputs": [
        {
          "internalType": "address",
          "name": "token",
          "type": "address"
        }
      ],
      "name": "approveMax",
      "outputs": [],
      "stateMutability": "payable",
      "type": "function"
    },
    {
      "inputs": [
        {
          "internalType": "address",
          "name": "token",
          "type": "address"
        }
      ],
      "name": "approveMaxMinusOne",
      "outputs": [],
      "stateMutability": "payable",
      "type": "function"
    },
    {
      "inputs": [
        {
          "internalType": "address",
          "name": "token",
          "type": "address"
        }
      ],
      "name": "approveZeroThenMax",
      "outputs": [],
      "stateMutability": "payable",
      "type": "function"
    },
    {
      "inputs": [
        {
          "internalType": "address",
          "name": "token",
          "type": "address"
        }
      ],
      "name": "approveZeroThenMaxMinusOne",
      "outputs": [],
      "stateMutability": "payable",
      "type": "function"
    },
    {
      "inputs": [
        {
          "internalType": "bytes",
          "name": "data",
          "type": "bytes"
        }
      ],
      "name": "callPositionManager",
      "outputs": [
        {
          "internalType": "bytes",
          "name": "result",
          "type": "bytes"
        }
      ],
      "stateMutability": "payable",
      "type": "function"
    },
    {
      "inputs": [
        {
          "internalType": "bytes[]",
          "name": "paths",
          "type": "bytes[]"
        },
        {
          "internalType": "uint128[]",
          "name": "amounts",
          "type": "uint128[]"
        },
        {
          "internalType": "uint24",
          "name": "maximumTickDivergence",
          "type": "uint24"
        },
        {
          "internalType": "uint32",
          "name": "secondsAgo",
          "type": "uint32"
        }
      ],
      "name": "checkOracleSlippage",
      "outputs": [],
      "stateMutability": "view",
      "type": "function"
    },
    {
      "inputs": [
        {
          "internalType": "bytes",
          "name": "path",
          "type": "bytes"
        },
        {
          "internalType": "uint24",
          "name": "maximumTickDivergence",
          "type": "uint24"
        },
        {
          "internalType": "uint32",
          "name": "secondsAgo",
          "type": "uint32"
        }
      ],
      "name": "checkOracleSlippage",
      "outputs": [],
      "stateMutability": "view",
      "type": "function"
    },
    {
      "inputs": [
        {
          "internalType": "int256",
          "name": "amount0Delta",
          "type": "int256"
        },
        {
          "internalType": "int256",
          "name": "amount1Delta",
          "type": "int256"
        },
        {
          "internalType": "bytes",
          "name": "_data",
          "type": "bytes"
        }
      ],
      "name": "etcswapV3SwapCallback",
      "outputs": [],
      "stateMutability": "nonpayable",
      "type": "function"
    },
    {
      "inputs": [
        {
          "components": [
            {
              "internalType": "bytes",
              "name": "path",
              "type": "bytes"
            },
            {
              "internalType": "address",
              "name": "recipient",
              "type": "address"
            },
            {
              "internalType": "uint256",
              "name": "amountIn",
              "type": "uint256"
            },
            {
              "internalType": "uint256",
              "name": "amountOutMinimum",
              "type": "uint256"
            }
          ],
          "internalType": "struct IV3SwapRouter.ExactInputParams",
          "name": "params",
          "type": "tuple"
        }
      ],
      "name": "exactInput",
      "outputs": [
        {
          "internalType": "uint256",
          "name": "amountOut",
          "type": "uint256"
        }
      ],
      "stateMutability": "payable",
      "type": "function"
    },
    {
      "inputs": [
        {
          "components": [
            {
              "internalType": "address",
              "name": "tokenIn",
              "type": "address"
            },
            {
              "internalType": "address",
              "name": "tokenOut",
              "type": "address"
            },
            {
              "internalType": "uint24",
              "name": "fee",
              "type": "uint24"
            },
            {
              "internalType": "address",
              "name": "recipient",
              "type": "address"
            },
            {
              "internalType": "uint256",
              "name": "amountIn",
              "type": "uint256"
            },
            {
              "internalType": "uint256",
              "name": "amountOutMinimum",
              "type": "uint256"
            },
            {
              "internalType": "uint160",
              "name": "sqrtPriceLimitX96",
              "type": "uint160"
            }
          ],
          "internalType": "struct IV3SwapRouter.ExactInputSingleParams",
          "name": "params",
          "type": "tuple"
        }
      ],
      "name": "exactInputSingle",
      "outputs": [
        {
          "internalType": "uint256",
          "name": "amountOut",
          "type": "uint256"
        }
      ],
      "stateMutability": "payable",
      "type": "function"
    },
    {
      "inputs": [
        {
          "components": [
            {
              "internalType": "bytes",
              "name": "path",
              "type": "bytes"
            },
            {
              "internalType": "address",
              "name": "recipient",
              "type": "address"
            },
            {
              "internalType": "uint256",
              "name": "amountOut",
              "type": "uint256"
            },
            {
              "internalType": "uint256",
              "name": "amountInMaximum",
              "type": "uint256"
            }
          ],
          "internalType": "struct IV3SwapRouter.ExactOutputParams",
          "name": "params",
          "type": "tuple"
        }
      ],
      "name": "exactOutput",
      "outputs": [
        {
          "internalType": "uint256",
          "name": "amountIn",
          "type": "uint256"
        }
      ],
      "stateMutability": "payable",
      "type": "function"
    },
    {
      "inputs": [
        {
          "components": [
            {
              "internalType": "address",
              "name": "tokenIn",
              "type": "address"
            },
            {
              "internalType": "address",
              "name": "tokenOut",
              "type": "address"
            },
            {
              "internalType": "uint24",
              "name": "fee",
              "type": "uint24"
            },
            {
              "internalType": "address",
              "name": "recipient",
              "type": "address"
            },
            {
              "internalType": "uint256",
              "name": "amountOut",
              "type": "uint256"
            },
            {
              "internalType": "uint256",
              "name": "amountInMaximum",
              "type": "uint256"
            },
            {
              "internalType": "uint160",
              "name": "sqrtPriceLimitX96",
              "type": "uint160"
            }
          ],
          "internalType": "struct IV3SwapRouter.ExactOutputSingleParams",
          "name": "params",
          "type": "tuple"
        }
      ],
      "name": "exactOutputSingle",
      "outputs": [
        {
          "internalType": "uint256",
          "name": "amountIn",
          "type": "uint256"
        }
      ],
      "stateMutability": "payable",
      "type": "function"
    },
    {
      "inputs": [],
      "name": "factory",
      "outputs": [
        {
          "internalType": "address",
          "name": "",
          "type": "address"
        }
      ],
      "stateMutability": "view",
      "type": "function"
    },
    {
      "inputs": [],
      "name": "factoryV2",
      "outputs": [
        {
          "internalType": "address",
          "name": "",
          "type": "address"
        }
      ],
      "stateMutability": "view",
      "type": "function"
    },
    {
      "inputs": [
        {
          "internalType": "address",
          "name": "token",
          "type": "address"
        },
        {
          "internalType": "uint256",
          "name": "amount",
          "type": "uint256"
        }
      ],
      "name": "getApprovalType",
      "outputs": [
        {
          "internalType": "enum IApproveAndCall.ApprovalType",
          "name": "",
          "type": "uint8"
        }
      ],
      "stateMutability": "nonpayable",
      "type": "function"
    },
    {
      "inputs": [
        {
          "components": [
            {
              "internalType": "address",
              "name": "token0",
              "type": "address"
            },
            {
              "internalType": "address",
              "name": "token1",
              "type": "address"
            },
            {
              "internalType": "uint256",
              "name": "tokenId",
              "type": "uint256"
            },
            {
              "internalType": "uint256",
              "name": "amount0Min",
              "type": "uint256"
            },
            {
              "internalType": "uint256",
              "name": "amount1Min",
              "type": "uint256"
            }
          ],
          "internalType": "struct IApproveAndCall.IncreaseLiquidityParams",
          "name": "params",
          "type": "tuple"
        }
      ],
      "name": "increaseLiquidity",
      "outputs": [
        {
          "internalType": "bytes",
          "name": "result",
          "type": "bytes"
        }
      ],
      "stateMutability": "payable",
      "type": "function"
    },
    {
      "inputs": [
        {
          "components": [
            {
              "internalType": "address",
              "name": "token0",
              "type": "address"
            },
            {
              "internalType": "address",
              "name": "token1",
              "type": "address"
            },
            {
              "internalType": "uint24",
              "name": "fee",
              "type": "uint24"
            },
            {
              "internalType": "int24",
              "name": "tickLower",
              "type": "int24"
            },
            {
              "internalType": "int24",
              "name": "tickUpper",
              "type": "int24"
            },
            {
              "internalType": "uint256",
              "name": "amount0Min",
              "type": "uint256"
            },
            {
              "internalType": "uint256",
              "name": "amount1Min",
              "type": "uint256"
            },
            {
              "internalType": "address",
              "name": "recipient",
              "type": "address"
            }
          ],
          "internalType": "struct IApproveAndCall.MintParams",
          "name": "params",
          "type": "tuple"
        }
      ],
      "name": "mint",
      "outputs": [
        {
          "internalType": "bytes",
          "name": "result",
          "type": "bytes"
        }
      ],
      "stateMutability": "payable",
      "type": "function"
    },
    {
      "inputs": [
        {
          "internalType": "bytes32",
          "name": "previousBlockhash",
          "type": "bytes32"
        },
        {
          "internalType": "bytes[]",
          "name": "data",
          "type": "bytes[]"
        }
      ],
      "name": "multicall",
      "outputs": [
        {
          "internalType": "bytes[]",
          "name": "",
          "type": "bytes[]"
        }
      ],
      "stateMutability": "payable",
      "type": "function"
    },
    {
      "inputs": [
        {
          "internalType": "uint256",
          "name": "deadline",
          "type": "uint256"
        },
        {
          "internalType": "bytes[]",
          "name": "data",
          "type": "bytes[]"
        }
      ],
      "name": "multicall",
      "outputs": [
        {
          "internalType": "bytes[]",
          "name": "",
          "type": "bytes[]"
        }
      ],
      "stateMutability": "payable",
      "type": "function"
    },
    {
      "inputs": [
        {
          "internalType": "bytes[]",
          "name": "data",
          "type": "bytes[]"
        }
      ],
      "name": "multicall",
      "outputs": [
        {
          "internalType": "bytes[]",
          "name": "results",
          "type": "bytes[]"
        }
      ],
      "stateMutability": "payable",
      "type": "function"
    },
    {
      "inputs": [],
      "name": "positionManager",
      "outputs": [
        {
          "internalType": "address",
          "name": "",
          "type": "address"
        }
      ],
      "stateMutability": "view",
      "type": "function"
    },
    {
      "inputs": [
        {
          "internalType": "address",
          "name": "token",
          "type": "address"
        },
        {
          "internalType": "uint256",
          "name": "value",
          "type": "uint256"
        }
      ],
      "name": "pull",
      "outputs": [],
      "stateMutability": "payable",
      "type": "function"
    },
    {
      "inputs": [],
      "name": "refundETH",
      "outputs": [],
      "stateMutability": "payable",
      "type": "function"
    },
    {
      "inputs": [
        {
          "internalType": "address",
          "name": "token",
          "type": "address"
        },
        {
          "internalType": "uint256",
          "name": "value",
          "type": "uint256"
        },
        {
          "internalType": "uint256",
          "name": "deadline",
          "type": "uint256"
        },
        {
          "internalType": "uint8",
          "name": "v",
          "type": "uint8"
        },
        {
          "internalType": "bytes32",
          "name": "r",
          "type": "bytes32"
        },
        {
          "internalType": "bytes32",
          "name": "s",
          "type": "bytes32"
        }
      ],
      "name": "selfPermit",
      "outputs": [],
      "stateMutability": "payable",
      "type": "function"
    },
    {
      "inputs": [
        {
          "internalType": "address",
          "name": "token",
          "type": "address"
        },
        {
          "internalType": "uint256",
          "name": "nonce",
          "type": "uint256"
        },
        {
          "internalType": "uint256",
          "name": "expiry",
          "type": "uint256"
        },
        {
          "internalType": "uint8",
          "name": "v",
          "type": "uint8"
        },
        {
          "internalType": "bytes32",
          "name": "r",
          "type": "bytes32"
        },
        {
          "internalType": "bytes32",
          "name": "s",
          "type": "bytes32"
        }
      ],
      "name": "selfPermitAllowed",
      "outputs": [],
      "stateMutability": "payable",
      "type": "function"
    },
    {
      "inputs": [
        {
          "internalType": "address",
          "name": "token",
          "type": "address"
        },
        {
          "internalType": "uint256",
          "name": "nonce",
          "type": "uint256"
        },
        {
          "internalType": "uint256",
          "name": "expiry",
          "type": "uint256"
        },
        {
          "internalType": "uint8",
          "name": "v",
          "type": "uint8"
        },
        {
          "internalType": "bytes32",
          "name": "r",
          "type": "bytes32"
        },
        {
          "internalType": "bytes32",
          "name": "s",
          "type": "bytes32"
        }
      ],
      "name": "selfPermitAllowedIfNecessary",
      "outputs": [],
      "stateMutability": "payable",
      "type": "function"
    },
    {
      "inputs": [
        {
          "internalType": "address",
          "name": "token",
          "type": "address"
        },
        {
          "internalType": "uint256",
          "name": "value",
          "type": "uint256"
        },
        {
          "internalType": "uint256",
          "name": "deadline",
          "type": "uint256"
        },
        {
          "internalType": "uint8",
          "name": "v",
          "type": "uint8"
        },
        {
          "internalType": "bytes32",
          "name": "r",
          "type": "bytes32"
        },
        {
          "internalType": "bytes32",
          "name": "s",
          "type": "bytes32"
        }
      ],
      "name": "selfPermitIfNecessary",
      "outputs": [],
      "stateMutability": "payable",
      "type": "function"
    },
    {
      "inputs": [
        {
          "internalType": "uint256",
          "name": "_time",
          "type": "uint256"
        }
      ],
      "name": "setTime",
      "outputs": [],
      "stateMutability": "nonpayable",
      "type": "function"
    },
    {
      "inputs": [
        {
          "internalType": "uint256",
          "name": "amountIn",
          "type": "uint256"
        },
        {
          "internalType": "uint256",
          "name": "amountOutMin",
          "type": "uint256"
        },
        {
          "internalType": "address[]",
          "name": "path",
          "type": "address[]"
        },
        {
          "internalType": "address",
          "name": "to",
          "type": "address"
        }
      ],
      "name": "swapExactTokensForTokens",
      "outputs": [
        {
          "internalType": "uint256",
          "name": "amountOut",
          "type": "uint256"
        }
      ],
      "stateMutability": "payable",
      "type": "function"
    },
    {
      "inputs": [
        {
          "internalType": "uint256",
          "name": "amountOut",
          "type": "uint256"
        },
        {
          "internalType": "uint256",
          "name": "amountInMax",
          "type": "uint256"
        },
        {
          "internalType": "address[]",
          "name": "path",
          "type": "address[]"
        },
        {
          "internalType": "address",
          "name": "to",
          "type": "address"
        }
      ],
      "name": "swapTokensForExactTokens",
      "outputs": [
        {
          "internalType": "uint256",
          "name": "amountIn",
          "type": "uint256"
        }
      ],
      "stateMutability": "payable",
      "type": "function"
    },
    {
      "inputs": [
        {
          "internalType": "address",
          "name": "token",
          "type": "address"
        },
        {
          "internalType": "uint256",
          "name": "amountMinimum",
          "type": "uint256"
        },
        {
          "internalType": "address",
          "name": "recipient",
          "type": "address"
        }
      ],
      "name": "sweepToken",
      "outputs": [],
      "stateMutability": "payable",
      "type": "function"
    },
    {
      "inputs": [
        {
          "internalType": "address",
          "name": "token",
          "type": "address"
        },
        {
          "internalType": "uint256",
          "name": "amountMinimum",
          "type": "uint256"
        }
      ],
      "name": "sweepToken",
      "outputs": [],
      "stateMutability": "payable",
      "type": "function"
    },
    {
      "inputs": [
        {
          "internalType": "address",
          "name": "token",
          "type": "address"
        },
        {
          "internalType": "uint256",
          "name": "amountMinimum",
          "type": "uint256"
        },
        {
          "internalType": "uint256",
          "name": "feeBips",
          "type": "uint256"
        },
        {
          "internalType": "address",
          "name": "feeRecipient",
          "type": "address"
        }
      ],
      "name": "sweepTokenWithFee",
      "outputs": [],
      "stateMutability": "payable",
      "type": "function"
    },
    {
      "inputs": [
        {
          "internalType": "address",
          "name": "token",
          "type": "address"
        },
        {
          "internalType": "uint256",
          "name": "amountMinimum",
          "type": "uint256"
        },
        {
          "internalType": "address",
          "name": "recipient",
          "type": "address"
        },
        {
          "internalType": "uint256",
          "name": "feeBips",
          "type": "uint256"
        },
        {
          "internalType": "address",
          "name": "feeRecipient",
          "type": "address"
        }
      ],
      "name": "sweepTokenWithFee",
      "outputs": [],
      "stateMutability": "payable",
      "type": "function"
    },
    {
      "inputs": [
        {
          "internalType": "uint256",
          "name": "amountMinimum",
          "type": "uint256"
        },
        {
          "internalType": "address",
          "name": "recipient",
          "type": "address"
        }
      ],
      "name": "unwrapWETH9",
      "outputs": [],
      "stateMutability": "payable",
      "type": "function"
    },
    {
      "inputs": [
        {
          "internalType": "uint256",
          "name": "amountMinimum",
          "type": "uint256"
        }
      ],
      "name": "unwrapWETH9",
      "outputs": [],
      "stateMutability": "payable",
      "type": "function"
    },
    {
      "inputs": [
        {
          "internalType": "uint256",
          "name": "amountMinimum",
          "type": "uint256"
        },
        {
          "internalType": "address",
          "name": "recipient",
          "type": "address"
        },
        {
          "internalType": "uint256",
          "name": "feeBips",
          "type": "uint256"
        },
        {
          "internalType": "address",
          "name": "feeRecipient",
          "type": "address"
        }
      ],
      "name": "unwrapWETH9WithFee",
      "outputs": [],
      "stateMutability": "payable",
      "type": "function"
    },
    {
      "inputs": [
        {
          "internalType": "uint256",
          "name": "amountMinimum",
          "type": "uint256"
        },
        {
          "internalType": "uint256",
          "name": "feeBips",
          "type": "uint256"
        },
        {
          "internalType": "address",
          "name": "feeRecipient",
          "type": "address"
        }
      ],
      "name": "unwrapWETH9WithFee",
      "outputs": [],
      "stateMutability": "payable",
      "type": "function"
    },
    {
      "inputs": [
        {
          "internalType": "uint256",
          "name": "value",
          "type": "uint256"
        }
      ],
      "name": "wrapETH",
      "outputs": [],
      "stateMutability": "payable",
      "type": "function"
    },
    {
      "stateMutability": "payable",
      "type": "receive"
    }
  ],
  "bytecode": "0x6101006040526000196000553480156200001857600080fd5b5060405162006177380380620061778339810160408190526200003b9162000087565b6001600160601b0319606094851b811660805291841b821660a05291831b811660c052911b1660e052620000e3565b80516001600160a01b03811681146200008257600080fd5b919050565b600080600080608085870312156200009d578384fd5b620000a8856200006a565b9350620000b8602086016200006a565b9250620000c8604086016200006a565b9150620000d8606086016200006a565b905092959194509250565b60805160601c60a05160601c60c05160601c60e05160601c615ff362000184600039806102dc5280610b7752806112ed528061141752806114be52806116ef52806118195280612dcf5280612e2f5280612eb0525080611c575280611fd05280613d1d5250806116af5280611b5a528061202052806132e6525080610ca25280610d765280611022528061168b528061300252806131c55250615ff36000f3fe6080604052600436106102bf5760003560e01c80639b2c0a371161016e578063d4ef38de116100cb578063efdeed8e1161007f578063f25801a711610064578063f25801a7146106a9578063f2d5d56b146106c9578063f3995c67146106dc5761036a565b8063efdeed8e14610676578063f100b205146106965761036a565b8063df2ab5bb116100b0578063df2ab5bb1461063d578063e0e189a014610650578063e90a182f146106635761036a565b8063d4ef38de146105fd578063dee00f35146106105761036a565b8063b49c5b7e11610122578063c2e3140a11610107578063c2e3140a146105c2578063c45a0155146105d5578063cab372ce146105ea5761036a565b8063b49c5b7e1461058f578063b858183f146105af5761036a565b8063ab3fdd5011610153578063ab3fdd5014610556578063ac9650d814610569578063b3a2af131461057c5761036a565b80639b2c0a3714610530578063a4a78f0c146105435761036a565b8063472b43f31161021c578063571ac8b0116101d0578063639d71a9116101b5578063639d71a9146104f357806368e0d4e114610506578063791b98bc1461051b5761036a565b8063571ac8b0146104cd5780635ae401dc146104e05761036a565b8063496169971161020157806349616997146104855780634aa4a4fc146104985780635023b4df146104ba5761036a565b8063472b43f31461045f57806349404b7c146104725761036a565b80631f0464d1116102735780633beb26c4116102585780633beb26c41461041957806342712a67146104395780634659a4941461044c5761036a565b80631f0464d1146103e65780633068c554146104065761036a565b806311ed56c9116102a457806311ed56c9146103ab57806312210e8a146103cb5780631c58db4f146103d35761036a565b806304e45aaf1461036f57806309b81346146103985761036a565b3661036a573373ffffffffffffffffffffffffffffffffffffffff7f0000000000000000000000000000000000000000000000000000000000000000161461036857604080517f08c379a000000000000000000000000000000000000000000000000000000000815260206004820152600960248201527f4e6f742057455448390000000000000000000000000000000000000000000000604482015290519081900360640190fd5b005b600080fd5b61038261037d366004615585565b6106ef565b60405161038f9190615e3f565b60405180910390f35b6103826103a6366004615620565b610877565b6103be6103b936600461567a565b610957565b60405161038f9190615bbc565b610368610b63565b6103686103e13660046157fd565b610b75565b6103f96103f43660046152e9565b610bf9565b60405161038f9190615b3e565b61036861041436600461511a565b610c83565b34801561042557600080fd5b506103686104343660046157fd565b610c96565b6103826104473660046158c7565b610c9b565b61036861045a366004615163565b610e75565b61038261046d3660046158c7565b610f35565b61036861048036600461582d565b6112e9565b6103686104933660046157fd565b6114af565b3480156104a457600080fd5b506104ad6114bc565b60405161038f9190615a7e565b6103826104c8366004615658565b6114e0565b6103686104db36600461502d565b6115c9565b6103f96104ee3660046152e9565b6115fc565b61036861050136600461502d565b611675565b34801561051257600080fd5b506104ad611689565b34801561052757600080fd5b506104ad6116ad565b61036861053e36600461585c565b6116d1565b610368610551366004615163565b6118e7565b61036861056436600461502d565b6119bc565b6103f96105773660046151be565b6119fa565b6103be61058a366004615333565b611b54565b34801561059b57600080fd5b506103686105aa3660046153fa565b611c12565b6103826105bd3660046154df565b611d56565b6103686105d0366004615163565b611f19565b3480156105e157600080fd5b506104ad611fce565b6103686105f836600461502d565b6119d0565b61036861060b36600461589a565b611ff2565b34801561061c57600080fd5b5061063061062b366004615050565b611ffe565b60405161038f9190615bcf565b61036861064b36600461507b565b6121ab565b61036861065e3660046150bc565b6122c2565b610368610671366004615050565b612428565b34801561068257600080fd5b506103686106913660046151fe565b612437565b6103be6106a4366004615669565b612489565b3480156106b557600080fd5b506103686106c4366004615366565b612529565b6103686106d7366004615050565b61257a565b6103686106ea366004615163565b612586565b6000806000836080015114156107ac575081516040517f70a0823100000000000000000000000000000000000000000000000000000000815260019173ffffffffffffffffffffffffffffffffffffffff16906370a0823190610756903090600401615a7e565b60206040518083038186803b15801561076e57600080fd5b505afa158015610782573d6000803e3d6000fd5b505050506040513d601f19601f820116820180604052508101906107a69190615815565b60808401525b610828836080015184606001518560c001516040518060400160405280886000015189604001518a602001516040516020016107ea939291906159ec565b604051602081830303815290604052815260200186610809573361080b565b305b73ffffffffffffffffffffffffffffffffffffffff16905261261e565b91508260a00151821015610871576040517f08c379a000000000000000000000000000000000000000000000000000000000815260040161086890615cbf565b60405180910390fd5b50919050565b60006108eb60408301803590610890906020860161502d565b60408051808201909152600090806108a88880615e83565b8080601f016020809104026020016040519081016040528093929190818152602001838380828437600092019190915250505090825250336020909101526127cf565b5050600054606082013581111561092e576040517f08c379a000000000000000000000000000000000000000000000000000000000815260040161086890615c51565b7fffffffffffffffffffffffffffffffffffffffffffffffffffffffffffffffff600055919050565b604080516101608101909152606090610b5b907f8831645600000000000000000000000000000000000000000000000000000000908061099a602087018761502d565b73ffffffffffffffffffffffffffffffffffffffff1681526020018560200160208101906109c8919061502d565b73ffffffffffffffffffffffffffffffffffffffff1681526020016109f360608701604088016157e3565b62ffffff168152602001610a0d60808701606088016153bb565b60020b8152602001610a2560a08701608088016153bb565b60020b8152602090810190610a4590610a409088018861502d565b6129b6565b8152602001610a60866020016020810190610a40919061502d565b815260a0860135602082015260c08601356040820152606001610a8a610100870160e0880161502d565b73ffffffffffffffffffffffffffffffffffffffff1681526020017fffffffffffffffffffffffffffffffffffffffffffffffffffffffffffffffff815250604051602401610ad99190615d3a565b604080517fffffffffffffffffffffffffffffffffffffffffffffffffffffffffffffffe08184030181529190526020810180517bffffffffffffffffffffffffffffffffffffffffffffffffffffffff167fffffffff0000000000000000000000000000000000000000000000000000000090931692909217909152611b54565b90505b919050565b4715610b7357610b733347612a5b565b565b7f000000000000000000000000000000000000000000000000000000000000000073ffffffffffffffffffffffffffffffffffffffff1663d0e30db0826040518263ffffffff1660e01b81526004016000604051808303818588803b158015610bdd57600080fd5b505af1158015610bf1573d6000803e3d6000fd5b505050505050565b60608380600143034014610c6e57604080517f08c379a000000000000000000000000000000000000000000000000000000000815260206004820152600960248201527f426c6f636b686173680000000000000000000000000000000000000000000000604482015290519081900360640190fd5b610c7884846119fa565b91505b509392505050565b610c9084843385856122c2565b50505050565b600155565b6000610cfb7f000000000000000000000000000000000000000000000000000000000000000087868680806020026020016040519081016040528093929190818152602001838360200280828437600092019190915250612ba992505050565b600081518110610d0757fe5b6020026020010151905084811115610d4b576040517f08c379a000000000000000000000000000000000000000000000000000000000815260040161086890615c51565b610de484846000818110610d5b57fe5b9050602002016020810190610d70919061502d565b33610dde7f000000000000000000000000000000000000000000000000000000000000000088886000818110610da257fe5b9050602002016020810190610db7919061502d565b89896001818110610dc457fe5b9050602002016020810190610dd9919061502d565b612ce2565b84612dcd565b73ffffffffffffffffffffffffffffffffffffffff821660011415610e0b57339150610e2e565b73ffffffffffffffffffffffffffffffffffffffff821660021415610e2e573091505b610e6c848480806020026020016040519081016040528093929190818152602001838360200280828437600092019190915250869250612fab915050565b95945050505050565b604080517f8fcbaf0c00000000000000000000000000000000000000000000000000000000815233600482015230602482015260448101879052606481018690526001608482015260ff851660a482015260c4810184905260e48101839052905173ffffffffffffffffffffffffffffffffffffffff881691638fcbaf0c9161010480830192600092919082900301818387803b158015610f1557600080fd5b505af1158015610f29573d6000803e3d6000fd5b50505050505050505050565b60008086610feb575060018484600081610f4b57fe5b9050602002016020810190610f60919061502d565b73ffffffffffffffffffffffffffffffffffffffff166370a08231306040518263ffffffff1660e01b8152600401610f989190615a7e565b60206040518083038186803b158015610fb057600080fd5b505afa158015610fc4573d6000803e3d6000fd5b505050506040513d601f19601f82011682018060405250810190610fe89190615815565b96505b61107685856000818110610ffb57fe5b9050602002016020810190611010919061502d565b8261101b573361101d565b305b6110707f00000000000000000000000000000000000000000000000000000000000000008989600081811061104e57fe5b9050602002016020810190611063919061502d565b8a8a6001818110610dc457fe5b8a612dcd565b73ffffffffffffffffffffffffffffffffffffffff83166001141561109d573392506110c0565b73ffffffffffffffffffffffffffffffffffffffff8316600214156110c0573092505b600085857fffffffffffffffffffffffffffffffffffffffffffffffffffffffffffffffff81018181106110f057fe5b9050602002016020810190611105919061502d565b73ffffffffffffffffffffffffffffffffffffffff166370a08231856040518263ffffffff1660e01b815260040161113d9190615a7e565b60206040518083038186803b15801561115557600080fd5b505afa158015611169573d6000803e3d6000fd5b505050506040513d601f19601f8201168201806040525081019061118d9190615815565b90506111cd868680806020026020016040519081016040528093929190818152602001838360200280828437600092019190915250889250612fab915050565b6112a28187877fffffffffffffffffffffffffffffffffffffffffffffffffffffffffffffffff81018181106111ff57fe5b9050602002016020810190611214919061502d565b73ffffffffffffffffffffffffffffffffffffffff166370a08231876040518263ffffffff1660e01b815260040161124c9190615a7e565b60206040518083038186803b15801561126457600080fd5b505afa158015611278573d6000803e3d6000fd5b505050506040513d601f19601f8201168201806040525081019061129c9190615815565b906132b0565b9250868310156112de576040517f08c379a000000000000000000000000000000000000000000000000000000000815260040161086890615cbf565b505095945050505050565b60007f000000000000000000000000000000000000000000000000000000000000000073ffffffffffffffffffffffffffffffffffffffff166370a08231306040518263ffffffff1660e01b8152600401808273ffffffffffffffffffffffffffffffffffffffff16815260200191505060206040518083038186803b15801561137257600080fd5b505afa158015611386573d6000803e3d6000fd5b505050506040513d602081101561139c57600080fd5b505190508281101561140f57604080517f08c379a000000000000000000000000000000000000000000000000000000000815260206004820152601260248201527f496e73756666696369656e742057455448390000000000000000000000000000604482015290519081900360640190fd5b80156114aa577f000000000000000000000000000000000000000000000000000000000000000073ffffffffffffffffffffffffffffffffffffffff16632e1a7d4d826040518263ffffffff1660e01b815260040180828152602001915050600060405180830381600087803b15801561148857600080fd5b505af115801561149c573d6000803e3d6000fd5b505050506114aa8282612a5b565b505050565b6114b981336112e9565b50565b7f000000000000000000000000000000000000000000000000000000000000000081565b6000611589608083018035906114f9906060860161502d565b61150960e0860160c0870161502d565b6040518060400160405280876020016020810190611527919061502d565b61153760608a0160408b016157e3565b61154460208b018b61502d565b604051602001611556939291906159ec565b60405160208183030381529060405281526020013373ffffffffffffffffffffffffffffffffffffffff168152506127cf565b90508160a0013581111561092e576040517f08c379a000000000000000000000000000000000000000000000000000000000815260040161086890615c51565b6115f3817fffffffffffffffffffffffffffffffffffffffffffffffffffffffffffffffff6132c0565b6114b957600080fd5b6060838061160861340c565b1115610c6e57604080517f08c379a000000000000000000000000000000000000000000000000000000000815260206004820152601360248201527f5472616e73616374696f6e20746f6f206f6c6400000000000000000000000000604482015290519081900360640190fd5b6116808160006132c0565b6115c957600080fd5b7f000000000000000000000000000000000000000000000000000000000000000081565b7f000000000000000000000000000000000000000000000000000000000000000081565b6000821180156116e2575060648211155b6116eb57600080fd5b60007f000000000000000000000000000000000000000000000000000000000000000073ffffffffffffffffffffffffffffffffffffffff166370a08231306040518263ffffffff1660e01b8152600401808273ffffffffffffffffffffffffffffffffffffffff16815260200191505060206040518083038186803b15801561177457600080fd5b505afa158015611788573d6000803e3d6000fd5b505050506040513d602081101561179e57600080fd5b505190508481101561181157604080517f08c379a000000000000000000000000000000000000000000000000000000000815260206004820152601260248201527f496e73756666696369656e742057455448390000000000000000000000000000604482015290519081900360640190fd5b80156118e0577f000000000000000000000000000000000000000000000000000000000000000073ffffffffffffffffffffffffffffffffffffffff16632e1a7d4d826040518263ffffffff1660e01b815260040180828152602001915050600060405180830381600087803b15801561188a57600080fd5b505af115801561189e573d6000803e3d6000fd5b5050505060006127106118ba858461341290919063ffffffff16565b816118c157fe5b04905080156118d4576118d48382612a5b565b610bf185828403612a5b565b5050505050565b604080517fdd62ed3e00000000000000000000000000000000000000000000000000000000815233600482015230602482015290517fffffffffffffffffffffffffffffffffffffffffffffffffffffffffffffffff9173ffffffffffffffffffffffffffffffffffffffff89169163dd62ed3e91604480820192602092909190829003018186803b15801561197c57600080fd5b505afa158015611990573d6000803e3d6000fd5b505050506040513d60208110156119a657600080fd5b50511015610bf157610bf1868686868686610e75565b6119c78160006132c0565b6119d057600080fd5b6115f3817ffffffffffffffffffffffffffffffffffffffffffffffffffffffffffffffffe6132c0565b60608167ffffffffffffffff81118015611a1357600080fd5b50604051908082528060200260200182016040528015611a4757816020015b6060815260200190600190039081611a325790505b50905060005b82811015611b4d5760008030868685818110611a6557fe5b9050602002810190611a779190615e83565b604051611a85929190615a52565b600060405180830381855af49150503d8060008114611ac0576040519150601f19603f3d011682016040523d82523d6000602084013e611ac5565b606091505b509150915081611b2b57604481511015611ade57600080fd5b60048101905080806020019051810190611af89190615475565b6040517f08c379a00000000000000000000000000000000000000000000000000000000081526004016108689190615bbc565b80848481518110611b3857fe5b60209081029190910101525050600101611a4d565b5092915050565b606060007f000000000000000000000000000000000000000000000000000000000000000073ffffffffffffffffffffffffffffffffffffffff1683604051611b9d9190615a62565b6000604051808303816000865af19150503d8060008114611bda576040519150601f19603f3d011682016040523d82523d6000602084013e611bdf565b606091505b50925090508061087157604482511015611bf857600080fd5b60048201915081806020019051810190611af89190615475565b6000841380611c215750600083135b611c2a57600080fd5b6000611c388284018461568c565b90506000806000611c4c8460000151613436565b925092509250611c7e7f0000000000000000000000000000000000000000000000000000000000000000848484613467565b5060008060008a13611cbf578473ffffffffffffffffffffffffffffffffffffffff168473ffffffffffffffffffffffffffffffffffffffff161089611cf0565b8373ffffffffffffffffffffffffffffffffffffffff168573ffffffffffffffffffffffffffffffffffffffff16108a5b915091508115611d0f57611d0a8587602001513384612dcd565b610f29565b8551611d1a9061347d565b15611d3f578551611d2a90613485565b8652611d3981336000896127cf565b50610f29565b80600081905550610f298487602001513384612dcd565b600080600083604001511415611e2757600190506000611d798460000151613436565b50506040517f70a0823100000000000000000000000000000000000000000000000000000000815290915073ffffffffffffffffffffffffffffffffffffffff8216906370a0823190611dd0903090600401615a7e565b60206040518083038186803b158015611de857600080fd5b505afa158015611dfc573d6000803e3d6000fd5b505050506040513d601f19601f82011682018060405250810190611e209190615815565b6040850152505b600081611e345733611e36565b305b90505b6000611e48856000015161347d565b9050611ea1856040015182611e61578660200151611e63565b305b60006040518060400160405280611e7d8b600001516134ba565b81526020018773ffffffffffffffffffffffffffffffffffffffff1681525061261e565b60408601528015611ec1578451309250611eba90613485565b8552611ece565b8460400151935050611ed4565b50611e39565b8360600151831015611f12576040517f08c379a000000000000000000000000000000000000000000000000000000000815260040161086890615cbf565b5050919050565b604080517fdd62ed3e0000000000000000000000000000000000000000000000000000000081523360048201523060248201529051869173ffffffffffffffffffffffffffffffffffffffff89169163dd62ed3e91604480820192602092909190829003018186803b158015611f8e57600080fd5b505afa158015611fa2573d6000803e3d6000fd5b505050506040513d6020811015611fb857600080fd5b50511015610bf157610bf1868686868686612586565b7f000000000000000000000000000000000000000000000000000000000000000081565b6114aa833384846116d1565b6000818373ffffffffffffffffffffffffffffffffffffffff1663dd62ed3e307f00000000000000000000000000000000000000000000000000000000000000006040518363ffffffff1660e01b815260040161205c929190615a9f565b60206040518083038186803b15801561207457600080fd5b505afa158015612088573d6000803e3d6000fd5b505050506040513d601f19601f820116820180604052508101906120ac9190615815565b106120b9575060006121a5565b6120e3837fffffffffffffffffffffffffffffffffffffffffffffffffffffffffffffffff6132c0565b156120f0575060016121a5565b61211a837ffffffffffffffffffffffffffffffffffffffffffffffffffffffffffffffffe6132c0565b15612127575060026121a5565b6121328360006132c0565b61213b57600080fd5b612165837fffffffffffffffffffffffffffffffffffffffffffffffffffffffffffffffff6132c0565b15612172575060036121a5565b61219c837ffffffffffffffffffffffffffffffffffffffffffffffffffffffffffffffffe6132c0565b1561036a575060045b92915050565b60008373ffffffffffffffffffffffffffffffffffffffff166370a08231306040518263ffffffff1660e01b8152600401808273ffffffffffffffffffffffffffffffffffffffff16815260200191505060206040518083038186803b15801561221457600080fd5b505afa158015612228573d6000803e3d6000fd5b505050506040513d602081101561223e57600080fd5b50519050828110156122b157604080517f08c379a000000000000000000000000000000000000000000000000000000000815260206004820152601260248201527f496e73756666696369656e7420746f6b656e0000000000000000000000000000604482015290519081900360640190fd5b8015610c9057610c908483836134c9565b6000821180156122d3575060648211155b6122dc57600080fd5b60008573ffffffffffffffffffffffffffffffffffffffff166370a08231306040518263ffffffff1660e01b8152600401808273ffffffffffffffffffffffffffffffffffffffff16815260200191505060206040518083038186803b15801561234557600080fd5b505afa158015612359573d6000803e3d6000fd5b505050506040513d602081101561236f57600080fd5b50519050848110156123e257604080517f08c379a000000000000000000000000000000000000000000000000000000000815260206004820152601260248201527f496e73756666696369656e7420746f6b656e0000000000000000000000000000604482015290519081900360640190fd5b8015610bf15760006127106123f78386613412565b816123fe57fe5b0490508015612412576124128784836134c9565b61241f87868385036134c9565b50505050505050565b6124338282336121ab565b5050565b60008061244586868561369e565b915091508362ffffff1681830312610bf1576040517f08c379a000000000000000000000000000000000000000000000000000000000815260040161086890615c88565b6060610b5b63219f5d1760e01b6040518060c00160405280856040013581526020016124c1866000016020810190610a40919061502d565b81526020016124dc866020016020810190610a40919061502d565b815260200185606001358152602001856080013581526020017fffffffffffffffffffffffffffffffffffffffffffffffffffffffffffffffff815250604051602401610ad99190615cf6565b60008061253685846138b1565b915091508362ffffff16818303126118e0576040517f08c379a000000000000000000000000000000000000000000000000000000000815260040161086890615c88565b61243382333084613b39565b604080517fd505accf000000000000000000000000000000000000000000000000000000008152336004820152306024820152604481018790526064810186905260ff8516608482015260a4810184905260c48101839052905173ffffffffffffffffffffffffffffffffffffffff88169163d505accf9160e480830192600092919082900301818387803b158015610f1557600080fd5b600073ffffffffffffffffffffffffffffffffffffffff8416600114156126475733935061266a565b73ffffffffffffffffffffffffffffffffffffffff84166002141561266a573093505b600080600061267c8560000151613436565b9194509250905073ffffffffffffffffffffffffffffffffffffffff808316908416106000806126ad868686613d16565b73ffffffffffffffffffffffffffffffffffffffff1663128acb088b856126d38f613d54565b73ffffffffffffffffffffffffffffffffffffffff8e16156126f5578d61271b565b876127145773fffd8963efd1fc6a506488495d951d5263988d2561271b565b6401000276a45b8d60405160200161272c9190615de8565b6040516020818303038152906040526040518663ffffffff1660e01b815260040161275b959493929190615ac6565b6040805180830381600087803b15801561277457600080fd5b505af1158015612788573d6000803e3d6000fd5b505050506040513d601f19601f820116820180604052508101906127ac91906153d7565b91509150826127bb57816127bd565b805b6000039b9a5050505050505050505050565b600073ffffffffffffffffffffffffffffffffffffffff8416600114156127f85733935061281b565b73ffffffffffffffffffffffffffffffffffffffff84166002141561281b573093505b600080600061282d8560000151613436565b9194509250905073ffffffffffffffffffffffffffffffffffffffff8084169083161060008061285e858786613d16565b73ffffffffffffffffffffffffffffffffffffffff1663128acb088b856128848f613d54565b60000373ffffffffffffffffffffffffffffffffffffffff8e16156128a9578d6128cf565b876128c85773fffd8963efd1fc6a506488495d951d5263988d256128cf565b6401000276a45b8d6040516020016128e09190615de8565b6040516020818303038152906040526040518663ffffffff1660e01b815260040161290f959493929190615ac6565b6040805180830381600087803b15801561292857600080fd5b505af115801561293c573d6000803e3d6000fd5b505050506040513d601f19601f8201168201806040525081019061296091906153d7565b9150915060008361297557818360000361297b565b82826000035b909850905073ffffffffffffffffffffffffffffffffffffffff8a166129a7578b81146129a757600080fd5b50505050505050949350505050565b6040517f70a0823100000000000000000000000000000000000000000000000000000000815260009073ffffffffffffffffffffffffffffffffffffffff8316906370a0823190612a0b903090600401615a7e565b60206040518083038186803b158015612a2357600080fd5b505afa158015612a37573d6000803e3d6000fd5b505050506040513d601f19601f82011682018060405250810190610b5b9190615815565b6040805160008082526020820190925273ffffffffffffffffffffffffffffffffffffffff84169083906040518082805190602001908083835b60208310612ad257805182527fffffffffffffffffffffffffffffffffffffffffffffffffffffffffffffffe09092019160209182019101612a95565b6001836020036101000a03801982511681845116808217855250505050505090500191505060006040518083038185875af1925050503d8060008114612b34576040519150601f19603f3d011682016040523d82523d6000602084013e612b39565b606091505b50509050806114aa57604080517f08c379a000000000000000000000000000000000000000000000000000000000815260206004820152600360248201527f5354450000000000000000000000000000000000000000000000000000000000604482015290519081900360640190fd5b6060600282511015612bba57600080fd5b815167ffffffffffffffff81118015612bd257600080fd5b50604051908082528060200260200182016040528015612bfc578160200160208202803683370190505b5090508281600183510381518110612c1057fe5b602090810291909101015281517fffffffffffffffffffffffffffffffffffffffffffffffffffffffffffffffff015b8015610c7b57600080612c7d87866001860381518110612c5c57fe5b6020026020010151878681518110612c7057fe5b6020026020010151613d86565b91509150612c9f848481518110612c9057fe5b60200260200101518383613e6e565b846001850381518110612cae57fe5b602090810291909101015250507fffffffffffffffffffffffffffffffffffffffffffffffffffffffffffffffff01612c40565b6000806000612cf18585613f44565b604080517fffffffffffffffffffffffffffffffffffffffff000000000000000000000000606094851b811660208084019190915293851b81166034830152825160288184030181526048830184528051908501207fff0000000000000000000000000000000000000000000000000000000000000060688401529a90941b9093166069840152607d8301989098527f96e8ac4277198ff8b6f785478aa9a39f403cb768dd02cbee326c3e7da348845f609d808401919091528851808403909101815260bd909201909752805196019590952095945050505050565b7f000000000000000000000000000000000000000000000000000000000000000073ffffffffffffffffffffffffffffffffffffffff168473ffffffffffffffffffffffffffffffffffffffff16148015612e285750804710155b15612f71577f000000000000000000000000000000000000000000000000000000000000000073ffffffffffffffffffffffffffffffffffffffff1663d0e30db0826040518263ffffffff1660e01b81526004016000604051808303818588803b158015612e9557600080fd5b505af1158015612ea9573d6000803e3d6000fd5b50505050507f000000000000000000000000000000000000000000000000000000000000000073ffffffffffffffffffffffffffffffffffffffff1663a9059cbb83836040518363ffffffff1660e01b8152600401808373ffffffffffffffffffffffffffffffffffffffff16815260200182815260200192505050602060405180830381600087803b158015612f3f57600080fd5b505af1158015612f53573d6000803e3d6000fd5b505050506040513d6020811015612f6957600080fd5b50610c909050565b73ffffffffffffffffffffffffffffffffffffffff8316301415612f9f57612f9a8483836134c9565b610c90565b610c9084848484613b39565b60005b60018351038110156114aa57600080848381518110612fc957fe5b6020026020010151858460010181518110612fe057fe5b6020026020010151915091506000612ff88383613f44565b50905060006130287f00000000000000000000000000000000000000000000000000000000000000008585612ce2565b90506000806000808473ffffffffffffffffffffffffffffffffffffffff16630902f1ac6040518163ffffffff1660e01b815260040160606040518083038186803b15801561307657600080fd5b505afa15801561308a573d6000803e3d6000fd5b505050506040513d601f19601f820116820180604052508101906130ae919061571c565b506dffffffffffffffffffffffffffff1691506dffffffffffffffffffffffffffff1691506000808773ffffffffffffffffffffffffffffffffffffffff168a73ffffffffffffffffffffffffffffffffffffffff1614613110578284613113565b83835b91509150613154828b73ffffffffffffffffffffffffffffffffffffffff166370a082318a6040518263ffffffff1660e01b815260040161124c9190615a7e565b9550613161868383613fe9565b9450505050506000808573ffffffffffffffffffffffffffffffffffffffff168873ffffffffffffffffffffffffffffffffffffffff16146131a5578260006131a9565b6000835b91509150600060028c51038a106131c0578a613201565b6132017f0000000000000000000000000000000000000000000000000000000000000000898e8d600201815181106131f457fe5b6020026020010151612ce2565b604080516000815260208101918290527f022c0d9f0000000000000000000000000000000000000000000000000000000090915290915073ffffffffffffffffffffffffffffffffffffffff87169063022c0d9f906132699086908690869060248101615e48565b600060405180830381600087803b15801561328357600080fd5b505af1158015613297573d6000803e3d6000fd5b50506001909b019a50612fae9950505050505050505050565b808203828111156121a557600080fd5b60008060008473ffffffffffffffffffffffffffffffffffffffff1663095ea7b360e01b7f000000000000000000000000000000000000000000000000000000000000000086604051602401613317929190615b18565b604080517fffffffffffffffffffffffffffffffffffffffffffffffffffffffffffffffe08184030181529181526020820180517bffffffffffffffffffffffffffffffffffffffffffffffffffffffff167fffffffff000000000000000000000000000000000000000000000000000000009094169390931790925290516133a09190615a62565b6000604051808303816000865af19150503d80600081146133dd576040519150601f19603f3d011682016040523d82523d6000602084013e6133e2565b606091505b5091509150818015610e6c575080511580610e6c575080806020019051810190610e6c91906152cf565b60015490565b600082158061342d5750508181028183828161342a57fe5b04145b6121a557600080fd5b6000808061344484826140bf565b92506134518460146141bf565b905061345e8460176140bf565b91509193909250565b6000610e6c856134788686866142af565b61432c565b516042111590565b8051606090610b5b9083906017907fffffffffffffffffffffffffffffffffffffffffffffffffffffffffffffffe90161435c565b6060610b5b826000602b61435c565b6040805173ffffffffffffffffffffffffffffffffffffffff8481166024830152604480830185905283518084039091018152606490920183526020820180517bffffffffffffffffffffffffffffffffffffffffffffffffffffffff167fa9059cbb000000000000000000000000000000000000000000000000000000001781529251825160009485949389169392918291908083835b6020831061359e57805182527fffffffffffffffffffffffffffffffffffffffffffffffffffffffffffffffe09092019160209182019101613561565b6001836020036101000a0380198251168184511680821785525050505050509050019150506000604051808303816000865af19150503d8060008114613600576040519150601f19603f3d011682016040523d82523d6000602084013e613605565b606091505b5091509150818015613633575080511580613633575080806020019051602081101561363057600080fd5b50515b6118e057604080517f08c379a000000000000000000000000000000000000000000000000000000000815260206004820152600260248201527f5354000000000000000000000000000000000000000000000000000000000000604482015290519081900360640190fd5b60008083518551146136af57600080fd5b6000855167ffffffffffffffff811180156136c957600080fd5b5060405190808252806020026020018201604052801561370357816020015b6136f0614e76565b8152602001906001900390816136e85790505b5090506000865167ffffffffffffffff8111801561372057600080fd5b5060405190808252806020026020018201604052801561375a57816020015b613747614e76565b81526020019060019003908161373f5790505b50905060005b875181101561388a576000806137898a848151811061377b57fe5b6020026020010151896138b1565b9150915061379682614543565b8584815181106137a257fe5b60200260200101516000019060020b908160020b815250506137c381614543565b8484815181106137cf57fe5b60200260200101516000019060020b908160020b815250508883815181106137f357fe5b602002602001015185848151811061380757fe5b6020026020010151602001906fffffffffffffffffffffffffffffffff1690816fffffffffffffffffffffffffffffffff168152505088838151811061384957fe5b602002602001015184848151811061385d57fe5b6020908102919091018101516fffffffffffffffffffffffffffffffff9092169101525050600101613760565b5061389482614554565b60020b93506138a281614554565b60020b92505050935093915050565b6000806000806138c08661463c565b90506000805b82811015613ade5760008060006138dc8b613436565b92509250925060006138ef848484613d16565b905060008063ffffffff8d166139185761390883614667565b600291820b9350900b90506139ba565b613922838e6148ff565b8160020b915050809250508273ffffffffffffffffffffffffffffffffffffffff16633850c7bd6040518163ffffffff1660e01b815260040160e06040518083038186803b15801561397357600080fd5b505afa158015613987573d6000803e3d6000fd5b505050506040513d601f19601f820116820180604052508101906139ab9190615757565b50505060029290920b93505050505b600189038714156139fb578473ffffffffffffffffffffffffffffffffffffffff168673ffffffffffffffffffffffffffffffffffffffff16109950613a0a565b613a048e613485565b9d508597505b6000871580613aab57508673ffffffffffffffffffffffffffffffffffffffff168973ffffffffffffffffffffffffffffffffffffffff1610613a7b578673ffffffffffffffffffffffffffffffffffffffff168673ffffffffffffffffffffffffffffffffffffffff1610613aab565b8573ffffffffffffffffffffffffffffffffffffffff168773ffffffffffffffffffffffffffffffffffffffff16105b90508015613ac0579b82019b9a81019a613acb565b828d039c50818c039b505b5050600190950194506138c69350505050565b5082613b2f577fffffffffffffffffffffffffffffffffffffffffffffffffffffffffffffffff850294507fffffffffffffffffffffffffffffffffffffffffffffffffffffffffffffffff840293505b5050509250929050565b6040805173ffffffffffffffffffffffffffffffffffffffff85811660248301528481166044830152606480830185905283518084039091018152608490920183526020820180517bffffffffffffffffffffffffffffffffffffffffffffffffffffffff167f23b872dd00000000000000000000000000000000000000000000000000000000178152925182516000948594938a169392918291908083835b60208310613c1657805182527fffffffffffffffffffffffffffffffffffffffffffffffffffffffffffffffe09092019160209182019101613bd9565b6001836020036101000a0380198251168184511680821785525050505050509050019150506000604051808303816000865af19150503d8060008114613c78576040519150601f19603f3d011682016040523d82523d6000602084013e613c7d565b606091505b5091509150818015613cab575080511580613cab5750808060200190516020811015613ca857600080fd5b50515b610bf157604080517f08c379a000000000000000000000000000000000000000000000000000000000815260206004820152600360248201527f5354460000000000000000000000000000000000000000000000000000000000604482015290519081900360640190fd5b6000613d4c7f0000000000000000000000000000000000000000000000000000000000000000613d478686866142af565b614d30565b949350505050565b60007f80000000000000000000000000000000000000000000000000000000000000008210613d8257600080fd5b5090565b6000806000613d958585613f44565b509050600080613da6888888612ce2565b73ffffffffffffffffffffffffffffffffffffffff16630902f1ac6040518163ffffffff1660e01b815260040160606040518083038186803b158015613deb57600080fd5b505afa158015613dff573d6000803e3d6000fd5b505050506040513d6060811015613e1557600080fd5b5080516020909101516dffffffffffffffffffffffffffff918216935016905073ffffffffffffffffffffffffffffffffffffffff87811690841614613e5c578082613e5f565b81815b90999098509650505050505050565b6000808411613ede57604080517f08c379a000000000000000000000000000000000000000000000000000000000815260206004820152601a60248201527f494e53554646494349454e545f4f55545055545f414d4f554e54000000000000604482015290519081900360640190fd5b600083118015613eee5750600082115b613ef757600080fd5b6000613f0f6103e8613f098688613412565b90613412565b90506000613f236103e5613f0986896132b0565b9050613f3a6001828481613f3357fe5b0490614e66565b9695505050505050565b6000808273ffffffffffffffffffffffffffffffffffffffff168473ffffffffffffffffffffffffffffffffffffffff161415613f8057600080fd5b8273ffffffffffffffffffffffffffffffffffffffff168473ffffffffffffffffffffffffffffffffffffffff1610613fba578284613fbd565b83835b909250905073ffffffffffffffffffffffffffffffffffffffff8216613fe257600080fd5b9250929050565b600080841161405957604080517f08c379a000000000000000000000000000000000000000000000000000000000815260206004820152601960248201527f494e53554646494349454e545f494e5055545f414d4f554e5400000000000000604482015290519081900360640190fd5b6000831180156140695750600082115b61407257600080fd5b6000614080856103e5613412565b9050600061408e8285613412565b905060006140a8836140a2886103e8613412565b90614e66565b90508082816140b357fe5b04979650505050505050565b60008182601401101561413357604080517f08c379a000000000000000000000000000000000000000000000000000000000815260206004820152601260248201527f746f416464726573735f6f766572666c6f770000000000000000000000000000604482015290519081900360640190fd5b81601401835110156141a657604080517f08c379a000000000000000000000000000000000000000000000000000000000815260206004820152601560248201527f746f416464726573735f6f75744f66426f756e64730000000000000000000000604482015290519081900360640190fd5b5001602001516c01000000000000000000000000900490565b60008182600301101561423357604080517f08c379a000000000000000000000000000000000000000000000000000000000815260206004820152601160248201527f746f55696e7432345f6f766572666c6f77000000000000000000000000000000604482015290519081900360640190fd5b81600301835110156142a657604080517f08c379a000000000000000000000000000000000000000000000000000000000815260206004820152601460248201527f746f55696e7432345f6f75744f66426f756e6473000000000000000000000000604482015290519081900360640190fd5b50016003015190565b6142b7614e8d565b8273ffffffffffffffffffffffffffffffffffffffff168473ffffffffffffffffffffffffffffffffffffffff1611156142ef579192915b506040805160608101825273ffffffffffffffffffffffffffffffffffffffff948516815292909316602083015262ffffff169181019190915290565b60006143388383614d30565b90503373ffffffffffffffffffffffffffffffffffffffff8216146121a557600080fd5b60608182601f0110156143d057604080517f08c379a000000000000000000000000000000000000000000000000000000000815260206004820152600e60248201527f736c6963655f6f766572666c6f77000000000000000000000000000000000000604482015290519081900360640190fd5b82828401101561444157604080517f08c379a000000000000000000000000000000000000000000000000000000000815260206004820152600e60248201527f736c6963655f6f766572666c6f77000000000000000000000000000000000000604482015290519081900360640190fd5b818301845110156144b357604080517f08c379a000000000000000000000000000000000000000000000000000000000815260206004820152601160248201527f736c6963655f6f75744f66426f756e6473000000000000000000000000000000604482015290519081900360640190fd5b6060821580156144d2576040519150600082526020820160405261453a565b6040519150601f8416801560200281840101858101878315602002848b0101015b8183101561450b5780518352602092830192016144f3565b5050858452601f017fffffffffffffffffffffffffffffffffffffffffffffffffffffffffffffffe016604052505b50949350505050565b80600281900b8114610b5e57600080fd5b6000806000805b84518110156145e95784818151811061457057fe5b6020026020010151602001516fffffffffffffffffffffffffffffffff1685828151811061459a57fe5b60200260200101516000015160020b02830192508481815181106145ba57fe5b6020026020010151602001516fffffffffffffffffffffffffffffffff1682019150808060010191505061455b565b508082816145f357fe5b05925060008212801561460e575080828161460a57fe5b0715155b15611f125750507fffffffffffffffffffffffffffffffffffffffffffffffffffffffffffffffff01919050565b5160177fffffffffffffffffffffffffffffffffffffffffffffffffffffffffffffffec9091010490565b6000806000808473ffffffffffffffffffffffffffffffffffffffff16633850c7bd6040518163ffffffff1660e01b815260040160e06040518083038186803b1580156146b357600080fd5b505afa1580156146c7573d6000803e3d6000fd5b505050506040513d601f19601f820116820180604052508101906146eb9190615757565b50939750919550935050600161ffff84161191506147379050576040517f08c379a000000000000000000000000000000000000000000000000000000000815260040161086890615c1a565b6000808673ffffffffffffffffffffffffffffffffffffffff1663252c09d7856040518263ffffffff1660e01b81526004016147739190615e30565b60806040518083038186803b15801561478b57600080fd5b505afa15801561479f573d6000803e3d6000fd5b505050506040513d601f19601f820116820180604052508101906147c39190615922565b5050915091506147d161340c565b63ffffffff168263ffffffff16146147eb578495506148f6565b60008361ffff1660018561ffff168761ffff1601038161480757fe5b06905060008060008a73ffffffffffffffffffffffffffffffffffffffff1663252c09d7856040518263ffffffff1660e01b81526004016148489190615e3f565b60806040518083038186803b15801561486057600080fd5b505afa158015614874573d6000803e3d6000fd5b505050506040513d601f19601f820116820180604052508101906148989190615922565b93505092509250806148d6576040517f08c379a000000000000000000000000000000000000000000000000000000000815260040161086890615be3565b82860363ffffffff811683870360060b816148ed57fe5b059a5050505050505b50505050915091565b60008063ffffffff831661497457604080517f08c379a000000000000000000000000000000000000000000000000000000000815260206004820152600260248201527f4250000000000000000000000000000000000000000000000000000000000000604482015290519081900360640190fd5b60408051600280825260608201835260009260208301908036833701905050905083816000815181106149a357fe5b602002602001019063ffffffff16908163ffffffff16815250506000816001815181106149cc57fe5b63ffffffff9092166020928302919091018201526040517f883bdbfd00000000000000000000000000000000000000000000000000000000815260048101828152835160248301528351600093849373ffffffffffffffffffffffffffffffffffffffff8b169363883bdbfd9388939192839260449091019185820191028083838b5b83811015614a67578181015183820152602001614a4f565b505050509050019250505060006040518083038186803b158015614a8a57600080fd5b505afa158015614a9e573d6000803e3d6000fd5b505050506040513d6000823e601f3d9081017fffffffffffffffffffffffffffffffffffffffffffffffffffffffffffffffe01682016040908152811015614ae557600080fd5b8101908080516040519392919084640100000000821115614b0557600080fd5b908301906020820185811115614b1a57600080fd5b8251866020820283011164010000000082111715614b3757600080fd5b82525081516020918201928201910280838360005b83811015614b64578181015183820152602001614b4c565b5050505090500160405260200180516040519392919084640100000000821115614b8d57600080fd5b908301906020820185811115614ba257600080fd5b8251866020820283011164010000000082111715614bbf57600080fd5b82525081516020918201928201910280838360005b83811015614bec578181015183820152602001614bd4565b5050505090500160405250505091509150600082600081518110614c0c57fe5b602002602001015183600181518110614c2157fe5b6020026020010151039050600082600081518110614c3b57fe5b602002602001015183600181518110614c5057fe5b60200260200101510390508763ffffffff168260060b81614c6d57fe5b05965060008260060b128015614c9757508763ffffffff168260060b81614c9057fe5b0760060b15155b15614cc2577fffffffffffffffffffffffffffffffffffffffffffffffffffffffffffffffff909601955b63ffffffff881673ffffffffffffffffffffffffffffffffffffffff0277ffffffffffffffffffffffffffffffffffffffff00000000602083901b1677ffffffffffffffffffffffffffffffffffffffffffffffff821681614d2057fe5b0496505050505050509250929050565b6000816020015173ffffffffffffffffffffffffffffffffffffffff16826000015173ffffffffffffffffffffffffffffffffffffffff1610614d7257600080fd5b508051602080830151604093840151845173ffffffffffffffffffffffffffffffffffffffff94851681850152939091168385015262ffffff166060808401919091528351808403820181526080840185528051908301207fff0000000000000000000000000000000000000000000000000000000000000060a085015294901b7fffffffffffffffffffffffffffffffffffffffff0000000000000000000000001660a183015260b58201939093527fe34f199b19b2b4f47f68442619d555527d244f78a3297ea89325f843f87b8b5460d5808301919091528251808303909101815260f5909101909152805191012090565b808201828110156121a557600080fd5b604080518082019091526000808252602082015290565b604080516060810182526000808252602082018190529181019190915290565b8035610b5e81615f94565b60008083601f840112614ec9578182fd5b50813567ffffffffffffffff811115614ee0578182fd5b6020830191508360208083028501011115613fe257600080fd5b600082601f830112614f0a578081fd5b81356020614f1f614f1a83615f0a565b615ee6565b8281528181019085830183850287018401881015614f3b578586fd5b855b85811015614f765781356fffffffffffffffffffffffffffffffff81168114614f64578788fd5b84529284019290840190600101614f3d565b5090979650505050505050565b80518015158114610b5e57600080fd5b600082601f830112614fa3578081fd5b8135614fb1614f1a82615f28565b818152846020838601011115614fc5578283fd5b816020850160208301379081016020019190915292915050565b80516dffffffffffffffffffffffffffff81168114610b5e57600080fd5b805161ffff81168114610b5e57600080fd5b803562ffffff81168114610b5e57600080fd5b8035610b5e81615fc5565b60006020828403121561503e578081fd5b813561504981615f94565b9392505050565b60008060408385031215615062578081fd5b823561506d81615f94565b946020939093013593505050565b60008060006060848603121561508f578081fd5b833561509a81615f94565b92506020840135915060408401356150b181615f94565b809150509250925092565b600080600080600060a086880312156150d3578283fd5b85356150de81615f94565b94506020860135935060408601356150f581615f94565b925060608601359150608086013561510c81615f94565b809150509295509295909350565b6000806000806080858703121561512f578182fd5b843561513a81615f94565b93506020850135925060408501359150606085013561515881615f94565b939692955090935050565b60008060008060008060c0878903121561517b578384fd5b863561518681615f94565b9550602087013594506040870135935060608701356151a481615fd7565b9598949750929560808101359460a0909101359350915050565b600080602083850312156151d0578182fd5b823567ffffffffffffffff8111156151e6578283fd5b6151f285828601614eb8565b90969095509350505050565b60008060008060808587031215615213578182fd5b843567ffffffffffffffff8082111561522a578384fd5b818701915087601f83011261523d578384fd5b8135602061524d614f1a83615f0a565b82815281810190858301885b85811015615282576152708e8684358b0101614f93565b84529284019290840190600101615259565b5090995050508801359250508082111561529a578384fd5b506152a787828801614efa565b9350506152b66040860161500f565b91506152c460608601615022565b905092959194509250565b6000602082840312156152e0578081fd5b61504982614f83565b6000806000604084860312156152fd578081fd5b83359250602084013567ffffffffffffffff81111561531a578182fd5b61532686828701614eb8565b9497909650939450505050565b600060208284031215615344578081fd5b813567ffffffffffffffff81111561535a578182fd5b613d4c84828501614f93565b60008060006060848603121561537a578081fd5b833567ffffffffffffffff811115615390578182fd5b61539c86828701614f93565b9350506153ab6020850161500f565b915060408401356150b181615fc5565b6000602082840312156153cc578081fd5b813561504981615fb6565b600080604083850312156153e9578182fd5b505080516020909101519092909150565b6000806000806060858703121561540f578182fd5b8435935060208501359250604085013567ffffffffffffffff80821115615434578384fd5b818701915087601f830112615447578384fd5b813581811115615455578485fd5b886020828501011115615466578485fd5b95989497505060200194505050565b600060208284031215615486578081fd5b815167ffffffffffffffff81111561549c578182fd5b8201601f810184136154ac578182fd5b80516154ba614f1a82615f28565b8181528560208385010111156154ce578384fd5b610e6c826020830160208601615f68565b6000602082840312156154f0578081fd5b813567ffffffffffffffff80821115615507578283fd5b908301906080828603121561551a578283fd5b60405160808101818110838211171561552f57fe5b604052823582811115615540578485fd5b61554c87828601614f93565b8252506020830135915061555f82615f94565b816020820152604083013560408201526060830135606082015280935050505092915050565b600060e08284031215615596578081fd5b60405160e0810181811067ffffffffffffffff821117156155b357fe5b6040526155bf83614ead565b81526155cd60208401614ead565b60208201526155de6040840161500f565b60408201526155ef60608401614ead565b60608201526080830135608082015260a083013560a082015261561460c08401614ead565b60c08201529392505050565b600060208284031215615631578081fd5b813567ffffffffffffffff811115615647578182fd5b820160808185031215615049578182fd5b600060e08284031215610871578081fd5b600060a08284031215610871578081fd5b60006101008284031215610871578081fd5b60006020828403121561569d578081fd5b813567ffffffffffffffff808211156156b4578283fd5b90830190604082860312156156c7578283fd5b6040516040810181811083821117156156dc57fe5b6040528235828111156156ed578485fd5b6156f987828601614f93565b8252506020830135925061570c83615f94565b6020810192909252509392505050565b600080600060608486031215615730578081fd5b61573984614fdf565b925061574760208501614fdf565b915060408401516150b181615fc5565b600080600080600080600060e0888a031215615771578485fd5b875161577c81615f94565b602089015190975061578d81615fb6565b955061579b60408901614ffd565b94506157a960608901614ffd565b93506157b760808901614ffd565b925060a08801516157c781615fd7565b91506157d560c08901614f83565b905092959891949750929550565b6000602082840312156157f4578081fd5b6150498261500f565b60006020828403121561580e578081fd5b5035919050565b600060208284031215615826578081fd5b5051919050565b6000806040838503121561583f578182fd5b82359150602083013561585181615f94565b809150509250929050565b60008060008060808587031215615871578182fd5b84359350602085013561588381615f94565b925060408501359150606085013561515881615f94565b6000806000606084860312156158ae578081fd5b833592506020840135915060408401356150b181615f94565b6000806000806000608086880312156158de578283fd5b8535945060208601359350604086013567ffffffffffffffff811115615902578384fd5b61590e88828901614eb8565b909450925050606086013561510c81615f94565b60008060008060808587031215615937578182fd5b845161594281615fc5565b8094505060208501518060060b8114615959578283fd5b604086015190935061596a81615f94565b91506152c460608601614f83565b73ffffffffffffffffffffffffffffffffffffffff169052565b600081518084526159aa816020860160208601615f68565b601f017fffffffffffffffffffffffffffffffffffffffffffffffffffffffffffffffe0169290920160200192915050565b60020b9052565b62ffffff169052565b606093841b7fffffffffffffffffffffffffffffffffffffffff000000000000000000000000908116825260e89390931b7fffffff0000000000000000000000000000000000000000000000000000000000166014820152921b166017820152602b0190565b6000828483379101908152919050565b60008251615a74818460208701615f68565b9190910192915050565b73ffffffffffffffffffffffffffffffffffffffff91909116815260200190565b73ffffffffffffffffffffffffffffffffffffffff92831681529116602082015260400190565b600073ffffffffffffffffffffffffffffffffffffffff8088168352861515602084015285604084015280851660608401525060a06080830152615b0d60a0830184615992565b979650505050505050565b73ffffffffffffffffffffffffffffffffffffffff929092168252602082015260400190565b6000602080830181845280855180835260408601915060408482028701019250838701855b82811015615baf577fffffffffffffffffffffffffffffffffffffffffffffffffffffffffffffffc0888603018452615b9d858351615992565b94509285019290850190600101615b63565b5092979650505050505050565b6000602082526150496020830184615992565b6020810160058310615bdd57fe5b91905290565b60208082526003908201527f4f4e490000000000000000000000000000000000000000000000000000000000604082015260600190565b60208082526003908201527f4e454f0000000000000000000000000000000000000000000000000000000000604082015260600190565b60208082526012908201527f546f6f206d756368207265717565737465640000000000000000000000000000604082015260600190565b60208082526002908201527f5444000000000000000000000000000000000000000000000000000000000000604082015260600190565b60208082526013908201527f546f6f206c6974746c6520726563656976656400000000000000000000000000604082015260600190565b600060c082019050825182526020830151602083015260408301516040830152606083015160608301526080830151608083015260a083015160a083015292915050565b600061016082019050615d4e828451615978565b6020830151615d606020840182615978565b506040830151615d7360408401826159e3565b506060830151615d8660608401826159dc565b506080830151615d9960808401826159dc565b5060a083015160a083015260c083015160c083015260e083015160e083015261010080840151818401525061012080840151615dd782850182615978565b505061014092830151919092015290565b600060208252825160406020840152615e046060840182615992565b905073ffffffffffffffffffffffffffffffffffffffff60208501511660408401528091505092915050565b61ffff91909116815260200190565b90815260200190565b600085825284602083015273ffffffffffffffffffffffffffffffffffffffff8416604083015260806060830152613f3a6080830184615992565b60008083357fffffffffffffffffffffffffffffffffffffffffffffffffffffffffffffffe1843603018112615eb7578283fd5b83018035915067ffffffffffffffff821115615ed1578283fd5b602001915036819003821315613fe257600080fd5b60405181810167ffffffffffffffff81118282101715615f0257fe5b604052919050565b600067ffffffffffffffff821115615f1e57fe5b5060209081020190565b600067ffffffffffffffff821115615f3c57fe5b50601f017fffffffffffffffffffffffffffffffffffffffffffffffffffffffffffffffe01660200190565b60005b83811015615f83578181015183820152602001615f6b565b83811115610c905750506000910152565b73ffffffffffffffffffffffffffffffffffffffff811681146114b957600080fd5b8060020b81146114b957600080fd5b63ffffffff811681146114b957600080fd5b60ff811681146114b957600080fdfea164736f6c6343000706000a",
  "linkReferences": {},
  "deployedLinkReferences": {}
}